S01E000041746D656761333238705F5065726970686572616C732E73726563CC
S11300000C9434000C94EF000C9418010C944101EE
S11300100C946A010C9493010C9451000C945100BB
S11300200C9451000C9451000C9451000C94510008
S11300300C9451000C9451000C9451000C945100F8
S11300400C9451000C94E5010C9493020C94E50279
S11300500C94BC020C94C6000C9451000C945100F6
S11300600C94BC010C94510011241FBECFEFD8E0B6
S1130070DEBFCDBF11E0A0E0B1E0E2E8FDE002C0E8
S113008005900D92AE32B107D9F721E0AEE2B1E0AE
S113009001C01D92A834B207E1F70E9453000C94EA
S11300A0BF060C94000081E00E940E03FFCFEAE734
S11300B0F0E08081806880830895ECE7F0E020819F
S11300C030E4839FC0011124822B80830895EAE7E2
S11300D0F0E09081892B808308950E94570081E08D
S11300E00E945D0087E00E9467000895CF93DF932C
S11300F0D82FC62F0E9457008D2F0E945D008C2F91
S11301000E946700DF91CF910895ECE7F0E09081C1
S1130110907F90839081892B8083EAE7F0E080814F
S11301208064808380917A0086FFFCCFEAE7F0E068
S11301308081806180838091780090917900089516
S1130140DF92EF92FF920F931F93CF93DF93D82EFA
S11301507B010E948500C0E0D0E000E010E006C012
S11301608D2D0E948500080F191F2196CE15DF05DD
S1130170BCF3C801B7010E94C103CB01DF91CF9149
S11301801F910F91FF90EF90DF9008951F920F92AF
S11301900FB60F9211242F933F934F935F936F9356
S11301A07F938F939F93AF93BF93EF93FF93E091CC
S11301B02E01F0912F01309709F00995FF91EF91ED
S11301C0BF91AF919F918F917F916F915F914F916B
S11301D03F912F910F900FBE0F901F9018951F9273
S11301E00F920FB60F9211242F933F934F935F9367
S11301F06F937F938F939F93AF93BF93EF93FF93EB
S1130200E0913801F0913901309709F00995FF9197
S1130210EF91BF91AF919F918F917F916F915F917A
S11302204F913F912F910F900FBE0F901F901895F3
S11302301F920F920FB60F9211242F933F934F9357
S11302405F936F937F938F939F93AF93BF93EF933A
S1130250FF93E0913601F0913701309709F0099549
S1130260FF91EF91BF91AF919F918F917F916F918A
S11302705F914F913F912F910F900FBE0F901F9060
S113028018951F920F920FB60F9211242F933F933C
S11302904F935F936F937F938F939F93AF93BF938A
S11302A0EF93FF93E0913401F0913501309709F019
S11302B00995FF91EF91BF91AF919F918F917F919C
S11302C06F915F914F913F912F910F900FBE0F90BF
S11302D01F9018951F920F920FB60F9211242F930F
S11302E03F934F935F936F937F938F939F93AF93BA
S11302F0BF93EF93FF93E0913201F0913301309774
S113030009F00995FF91EF91BF91AF919F918F9162
S11303107F916F915F914F913F912F910F900FBEFD
S11303200F901F9018951F920F920FB60F921124E1
S11303302F933F934F935F936F937F938F939F93E9
S1130340AF93BF93EF93FF93E0913001F0913101AC
S1130350309709F00995FF91EF91BF91AF919F916B
S11303608F917F916F915F914F913F912F910F905A
S11303700FBE0F901F9018951F920F920FB60F92F9
S113038011242F933F934F935F936F937F938F9396
S11303909F93AF93BF93EF93FF93E0913A01F09152
S11303A03B01309709F00995FF91EF91BF91AF910F
S11303B09F918F917F916F915F914F913F912F9179
S11303C00F900FBE0F901F9018951F920F920FB6AB
S11303D00F9211242F933F934F935F936F937F93C7
S11303E08F939F93AF93BF93EF93FF93E0913C015F
S11303F0F0913D01309709F00995FF91EF91BF917C
S1130400AF919F918F917F916F915F914F913F91A8
S11304102F910F900FBE0F901F901895E2ECF0E013
S1130420208130E1839FC0011124822B80830895B1
S1130430E2ECF0E0208190E0880F991F880F991F6B
S1130440880F991F822B80830895873059F4E2EC3A
S1130450F0E0808186608083E1ECF0E0808184605C
S113046080830895E2ECF0E0208190E0880F991FEA
S1130470822B808308959093C5008093C4000895CF
S1130480882331F0E1ECF0E080818061808308957D
S1130490E1ECF0E080818F7E80830895882331F041
S11304A0E1ECF0E08081886080830895E1ECF0E085
S11304B08081877F808308950E943B0281E00E94AF
S11304C0400281E00E944E0280E00E940E0280E021
S11304D00E94180283E00E94250208959091C000B2
S11304E095FFFCCF8093C60008950F931F93CF937D
S11304F0DF938C01C0E0D0E007C0F801EC0FFD1FD2
S113050080810E946E022196F80101900020E9F793
S11305103197E01BF10BCE17DF0778F3DF91CF9112
S11305201F910F9108951F920F920FB60F921124ED
S11305302F933F934F935F936F937F938F939F93E7
S1130540AF93BF93EF93FF93E0914201F091430186
S1130550309709F00995FF91EF91BF91AF919F9169
S11305608F917F916F915F914F913F912F910F9058
S11305700FBE0F901F9018951F920F920FB60F92F7
S113058011242F933F934F935F936F937F938F9394
S11305909F93AF93BF93EF93FF93E0914001F0914A
S11305A04101309709F00995FF91EF91BF91AF9107
S11305B09F918F917F916F915F914F913F912F9177
S11305C00F900FBE0F901F9018951F920F920FB6A9
S11305D00F9211242F933F934F935F936F937F93C5
S11305E08F939F93AF93BF93EF93FF93E0913E015B
S11305F0F0913F01309709F00995FF91EF91BF9178
S1130600AF919F918F917F916F915F914F913F91A6
S11306102F910F900FBE0F901F901895EF92FF929D
S11306200F931F93CF93DF93CDB7DEB7A8970FB681
S1130630F894DEBF0FBECDBF811143C00E946D0090
S113064087E690E00E945C0286E091E00E947502D9
S113065082E00E948500909347018093460169E1FE
S113066070E082E00E94A0009093450180934401D1
S11306702FEF83ED90E3215080409040E1F700C0DC
S11306800000809145018F93809144018F93809164
S113069047018F93809146018F938CE191E09F9362
S11306A08F938E010F5F1F4F1F930F930E94D503EB
S11306B0C8010E9475020FB6F894DEBF0FBECDBF0D
S11306C0C7CF813009F050C067E00E94760087E60A
S11306D090E00E945C0286E091E00E94750200E0D6
S11306E010E035C0C80180509F4F7C01FC0180811F
S11306F00E948500909347018093460169E170E070
S1130700F70180810E94A0008093440190934501E9
S11307109F938F93809147018F93809146018F938C
S11307201F930F9386E191E09F938F93CE010196DF
S11307307C019F938F930E94D503C7010E94750289
S11307400F5F1F4F0FB6F894DEBF0FBECDBF06304C
S1130750110544F2FFEF27EA81E6F1502040804082
S1130760E1F700C00000BBCFA8960FB6F894DEBF37
S11307700FBECDBFDF91CF911F910F91FF90EF90EE
S11307800895AA1BBB1B51E107C0AA1FBB1FA617D4
S1130790B70710F0A61BB70B881F991F5A95A9F726
S11307A080959095BC01CD010895AEE0B0E0EBEDED
S11307B0F3E00C9496060D891E8986E08C831A83D7
S11307C009838FEF9FE79E838D83AE01475E5F4F62
S11307D06F89788DCE0101960E94F703EF81F88529
S11307E0E00FF11F10822E96E4E00C94B206ABE009
S11307F0B0E0EDEFF3E00C9488066C017B018A0114
S1130800FC0117821682838181FFCCC1CE0101963F
S11308103C01F6019381F70193FD859193FF81914A
S11308207F01882309F4BAC1853239F493FD859197
S113083093FF81917F01853229F4B60190E00E94F3
S1130840EE05E7CF912C212C312CFFE1F315D8F0E4
S11308508B3279F038F4803279F08332A1F4232D8D
S113086020611DC08D3261F0803369F4232D216035
S113087016C0832D8260382EE32DE4603E2E2AC0FC
S1130880F32DF8601DC037FC2DC020ED280F2A3051
S113089040F08E32B9F436FC81C1232D2064322E0F
S11308A019C036FE06C08AE0989E200D1124922EAF
S11308B011C0EAE02E9E200D1124222EF32DF062A9
S11308C03F2E08C08C3621F4832D8068382E02C058
S11308D0883641F4F70193FD859193FF81917F015F
S11308E08111B3CF982F9F7D9554933028F40C5FDA
S11308F01F4F9FE399830DC0833631F0833771F026
S1130900833509F059C021C0F801808189830E5FC5
S11309101F4F88248394912C530113C02801F2E0C3
S11309204F0E511CF801A080B18036FE03C0692D22
S113093070E002C06FEF7FEFC5010E94E3054C0138
S11309408201F32DFF773F2E16C0280122E0420ECC
S1130950511CF801A080B18036FE03C0692D70E0FF
S113096002C06FEF7FEFC5010E94D8054C01F32D43
S1130970F0683F2E820133FC1BC0822D90E0881664
S11309809906B0F4B60180E290E00E94EE052A9444
S1130990F4CFF50137FC859137FE81915F01B601F3
S11309A090E00E94EE0521102A9421E0821A910819
S11309B08114910471F7E8C0843611F0893641F549
S11309C0F80137FE07C060817181828193810C5FD9
S11309D01F4F08C060817181072E000C880B990B92
S11309E00E5F1F4FF32DFF763F2E97FF09C09095A2
S11309F08095709561957F4F8F4F9F4FF0683F2E84
S1130A002AE030E0A3010E942A06882E861845C0F9
S1130A10853731F4232D2F7EB22E2AE030E025C015
S1130A20932D997FB92E8F36C1F018F4883579F05B
S1130A30B5C0803719F0883721F0B0C0E92FE061E4
S1130A40BE2EB4FE0DC0FB2DF460BF2E09C034FED3
S1130A500AC0292F2660B22E06C028E030E005C067
S1130A6020E130E002C020E132E0F801B7FE07C027
S1130A7060817181828193810C5F1F4F06C0608108
S1130A80718180E090E00E5F1F4FA3010E942A064F
S1130A90882E8618FB2DFF773F2E36FE0DC0232DA2
S1130AA02E7FA22E891458F434FE0BC032FC09C0E8
S1130AB0832D8E7EA82E05C0B82CA32C03C0B82C81
S1130AC001C0B92CA4FE0FC0FE01E80DF11D808108
S1130AD0803321F49A2D997EA92E09C0A2FE06C066
S1130AE0B394B39404C08A2D867809F0B394A3FC1C
S1130AF011C0A0FE06C0B21488F4280C922C9B18D6
S1130B000EC0B21460F4B60180E290E00E94EE05DB
S1130B10B394F7CFB21418F42B1802C0982C212CDC
S1130B20A4FE10C0B60180E390E00E94EE05A2FE90
S1130B3017C0A1FC03C088E790E002C088E590E0FC
S1130B40B6010CC08A2D867859F0A1FE02C08BE252
S1130B5001C080E2A7FC8DE2B60190E00E94EE05A0
S1130B60891438F4B60180E390E00E94EE059A946B
S1130B70F7CF8A94F301E80DF11D8081B60190E06E
S1130B800E94EE058110F5CF222009F442CEB60171
S1130B9080E290E00E94EE052A94F6CFF601868169
S1130BA0978102C08FEF9FEF2B96E2E10C94A4068D
S1130BB0FC010590615070400110D8F78095909524
S1130BC08E0F9F1F0895FC01615070400190011029
S1130BD0D8F7809590958E0F9F1F08950F931F93BC
S1130BE0CF93DF93FB01238121FD03C08FEF9FEFA0
S1130BF02CC022FF16C046815781248135814217BB
S1130C00530744F4A081B1819D012F5F3F4F31838D
S1130C1020838C93268137812F5F3F4F3783268330
S1130C2014C08B01EC01FB010084F185E02D0995D2
S1130C30892BE1F6D80116968D919C911797019610
S1130C4017969C938E931697CE01DF91CF911F91A7
S1130C500F910895FA01AA27283051F1203181F12A
S1130C60E8946F936E7F6E5F7F4F8F4F9F4FAF4FB0
S1130C70B1E03ED0B4E03CD0670F781F891F9A1FC3
S1130C80A11D680F791F8A1F911DA11D6A0F711D77
S1130C90811D911DA11D20D009F468943F912AE083
S1130CA0269F11243019305D3193DEF6CF0108956B
S1130CB0462F4770405D4193B3E00FD0C9F7F6CF9C
S1130CC0462F4F70405D4A3318F0495D31FD405264
S1130CD0419302D0A9F7EACFB4E0A69597958795FA
S1130CE077956795BA95C9F70097610571050895D9
S1130CF09B01AC010A2E0694579547953795279585
S1130D00BA95C9F7620F731F841F951FA01D08951C
S1130D102F923F924F925F926F927F928F929F9207
S1130D20AF92BF92CF92DF92EF92FF920F931F93F5
S1130D30CF93DF93CDB7DEB7CA1BDB0B0FB6F894A6
S1130D40DEBF0FBECDBF09942A88398848885F84E6
S1130D506E847D848C849B84AA84B984C884DF8057
S1130D60EE80FD800C811B81AA81B981CE0FD11D3B
S1130D700FB6F894DEBF0FBECDBFED010895F89411
S1050D80FFCF9F
S1130D82010203040500496E69742075736172746B
S1130D9220646F6E6500414443256420726561647A
S1110DA22F617672203D2025642F25640A00FF
S9030000FC
