S01E000041746D656761333238705F5065726970686572616C732E73726563CC
S11300000C9434000C947D000C94A6000C94CF0046
S11300100C94F8000C9421010C9451000C94E4020B
S11300200C940D030C94BB020C9492020C944002A9
S11300300C9469020C9417020C94C5010C94EE0103
S11300400C949C010C9473010C9436030C94880357
S11300500C945F030C9454000C9451000C945100C4
S11300600C944A010C94510011241FBECFEFD8E028
S1130070DEBFCDBF11E0A0E0B1E0E6E6F7E002C0EC
S113008005900D92A030B107D9F721E0A0E0B1E0CE
S113009001C01D92AA32B207E1F70E9453000C94EA
S11300A0B1030C940000FFCF1F920F920FB60F9272
S11300B011242F933F934F935F936F937F938F9369
S11300C09F93AF93BF93EF93FF93E0910001F0915F
S11300D00101309709F00995FF91EF91BF91AF911C
S11300E09F918F917F916F915F914F913F912F914C
S11300F00F900FBE0F901F9018951F920F920FB67E
S11301000F9211242F933F934F935F936F937F9399
S11301108F939F93AF93BF93EF93FF93E0910A0163
S1130120F0910B01309709F00995FF91EF91BF9180
S1130130AF919F918F917F916F915F914F913F917B
S11301402F910F900FBE0F901F9018951F920F9232
S11301500FB60F9211242F933F934F935F936F9396
S11301607F938F939F93AF93BF93EF93FF93E0910C
S11301700801F0910901309709F00995FF91EF9179
S1130180BF91AF919F918F917F916F915F914F91AB
S11301903F912F910F900FBE0F901F9018951F92B3
S11301A00F920FB60F9211242F933F934F935F93A7
S11301B06F937F938F939F93AF93BF93EF93FF932B
S11301C0E0910601F0910701309709F00995FF913C
S11301D0EF91BF91AF919F918F917F916F915F91BB
S11301E04F913F912F910F900FBE0F901F90189534
S11301F01F920F920FB60F9211242F933F934F9398
S11302005F936F937F938F939F93AF93BF93EF937A
S1130210FF93E0910401F0910501309709F00995ED
S1130220FF91EF91BF91AF919F918F917F916F91CA
S11302305F914F913F912F910F900FBE0F901F90A0
S113024018951F920F920FB60F9211242F933F937C
S11302504F935F936F937F938F939F93AF93BF93CA
S1130260EF93FF93E0910201F0910301309709F0BD
S11302700995FF91EF91BF91AF919F918F917F91DC
S11302806F915F914F913F912F910F900FBE0F90FF
S11302901F9018951F920F920FB60F9211242F934F
S11302A03F934F935F936F937F938F939F93AF93FA
S11302B0BF93EF93FF93E0910C01F0910D01309700
S11302C009F00995FF91EF91BF91AF919F918F91A3
S11302D07F916F915F914F913F912F910F900FBE3E
S11302E00F901F9018951F920F920FB60F92112422
S11302F02F933F934F935F936F937F938F939F932A
S1130300AF93BF93EF93FF93E0910E01F0910F0130
S1130310309709F00995FF91EF91BF91AF919F91AB
S11303208F917F916F915F914F913F912F910F909A
S11303300FBE0F901F9018951F920F920FB60F9239
S113034011242F933F934F935F936F937F938F93D6
S11303509F93AF93BF93EF93FF93E0912201F091AA
S11303602301309709F00995FF91EF91BF91AF9167
S11303709F918F917F916F915F914F913F912F91B9
S11303800F900FBE0F901F9018951F920F920FB6EB
S11303900F9211242F933F934F935F936F937F9307
S11303A08F939F93AF93BF93EF93FF93E0911E01BD
S11303B0F0911F01309709F00995FF91EF91BF91DA
S11303C0AF919F918F917F916F915F914F913F91E9
S11303D02F910F900FBE0F901F9018951F920F92A0
S11303E00FB60F9211242F933F934F935F936F9304
S11303F07F938F939F93AF93BF93EF93FF93E0917A
S11304002001F0912101309709F00995FF91EF91B6
S1130410BF91AF919F918F917F916F915F914F9118
S11304203F912F910F900FBE0F901F9018951F9220
S11304300F920FB60F9211242F933F934F935F9314
S11304406F937F938F939F93AF93BF93EF93FF9398
S1130450E0911C01F0911D01309709F00995FF917D
S1130460EF91BF91AF919F918F917F916F915F9128
S11304704F913F912F910F900FBE0F901F901895A1
S11304801F920F920FB60F9211242F933F934F9305
S11304905F936F937F938F939F93AF93BF93EF93E8
S11304A0FF93E0911801F0911901309709F0099533
S11304B0FF91EF91BF91AF919F918F917F916F9138
S11304C05F914F913F912F910F900FBE0F901F900E
S11304D018951F920F920FB60F9211242F933F93EA
S11304E04F935F936F937F938F939F93AF93BF9338
S11304F0EF93FF93E0911A01F0911B01309709F0FB
S11305000995FF91EF91BF91AF919F918F917F9149
S11305106F915F914F913F912F910F900FBE0F906C
S11305201F9018951F920F920FB60F9211242F93BC
S11305303F934F935F936F937F938F939F93AF9367
S1130540BF93EF93FF93E0911601F0911701309759
S113055009F00995FF91EF91BF91AF919F918F9110
S11305607F916F915F914F913F912F910F900FBEAB
S11305700F901F9018951F920F920FB60F9211248F
S11305802F933F934F935F936F937F938F939F9397
S1130590AF93BF93EF93FF93E0911401F091150192
S11305A0309709F00995FF91EF91BF91AF919F9119
S11305B08F917F916F915F914F913F912F910F9008
S11305C00FBE0F901F9018951F920F920FB60F92A7
S11305D011242F933F934F935F936F937F938F9344
S11305E09F93AF93BF93EF93FF93E0911001F0912A
S11305F01101309709F00995FF91EF91BF91AF91E7
S11306009F918F917F916F915F914F913F912F9126
S11306100F900FBE0F901F9018951F920F920FB658
S11306200F9211242F933F934F935F936F937F9374
S11306308F939F93AF93BF93EF93FF93E091120136
S1130640F0911301309709F00995FF91EF91BF9153
S1130650AF919F918F917F916F915F914F913F9156
S11306602F910F900FBE0F901F9018951F920F920D
S11306700FB60F9211242F933F934F935F936F9371
S11306807F938F939F93AF93BF93EF93FF93E091E7
S11306902801F0912901309709F00995FF91EF9114
S11306A0BF91AF919F918F917F916F915F914F9186
S11306B03F912F910F900FBE0F901F9018951F928E
S11306C00F920FB60F9211242F933F934F935F9382
S11306D06F937F938F939F93AF93BF93EF93FF9306
S11306E0E0912601F0912701309709F00995FF91D7
S11306F0EF91BF91AF919F918F917F916F915F9196
S11307004F913F912F910F900FBE0F901F9018950E
S11307101F920F920FB60F9211242F933F934F9372
S11307205F936F937F938F939F93AF93BF93EF9355
S1130730FF93E0912401F0912501309709F0099588
S1130740FF91EF91BF91AF919F918F917F916F91A5
S11307505F914F913F912F910F900FBE0F901F907B
S10907601895F894FFCF88
S9030000FC
