S01E000041746D656761333238705F5065726970686572616C732E73726563CC
S11300000C9434000C9449000C9449000C9449005D
S11300100C9449000C9449000C9449000C94490038
S11300200C9449000C9449000C9449000C94490028
S11300300C9449000C9449000C9449000C94490018
S11300400C9449000C944C000C9456000C944900F8
S11300500C9449000C9449000C9449000C944900F8
S11300600C9449000C94490011241FBECFEFD8E032
S1130070DEBFCDBF11E0A0E0B1E0E4ECF0E002C0EF
S113008005900D92A030B107D9F70E944B000C9453
S113009060000C940000FFCF1F920F920FB60F92D6
S11300A011240F900FBE0F901F9018951F920F925E
S11300B00FB60F9211240F900FBE0F901F9018953A
S10700C0F894FFCFDE
S9030000FC
