S01E000041746D656761333238705F5065726970686572616C732E73726563CC
S11300000C9434000C947D000C94A6000C94CF0046
S11300100C94F8000C9421010C9451000C945100A0
S11300200C9451000C9451000C9451000C94510008
S11300300C9451000C9451000C9451000C945100F8
S11300400C9451000C9473010C949C010C94EE01DB
S11300500C94C5010C9454000C9451000C94510060
S11300600C944A010C94510011241FBECFEFD8E028
S1130070DEBFCDBF11E0A0E0B1E0E2E3F4E002C0F6
S113008005900D92A030B107D9F721E0A0E0B1E0CE
S113009001C01D92A631B207E1F70E9453000C94EF
S11300A017020C940000FFCF1F920F920FB60F920D
S11300B011242F933F934F935F936F937F938F9369
S11300C09F93AF93BF93EF93FF93E0910001F0915F
S11300D00101309709F00995FF91EF91BF91AF911C
S11300E09F918F917F916F915F914F913F912F914C
S11300F00F900FBE0F901F9018951F920F920FB67E
S11301000F9211242F933F934F935F936F937F9399
S11301108F939F93AF93BF93EF93FF93E0910A0163
S1130120F0910B01309709F00995FF91EF91BF9180
S1130130AF919F918F917F916F915F914F913F917B
S11301402F910F900FBE0F901F9018951F920F9232
S11301500FB60F9211242F933F934F935F936F9396
S11301607F938F939F93AF93BF93EF93FF93E0910C
S11301700801F0910901309709F00995FF91EF9179
S1130180BF91AF919F918F917F916F915F914F91AB
S11301903F912F910F900FBE0F901F9018951F92B3
S11301A00F920FB60F9211242F933F934F935F93A7
S11301B06F937F938F939F93AF93BF93EF93FF932B
S11301C0E0910601F0910701309709F00995FF913C
S11301D0EF91BF91AF919F918F917F916F915F91BB
S11301E04F913F912F910F900FBE0F901F90189534
S11301F01F920F920FB60F9211242F933F934F9398
S11302005F936F937F938F939F93AF93BF93EF937A
S1130210FF93E0910401F0910501309709F00995ED
S1130220FF91EF91BF91AF919F918F917F916F91CA
S11302305F914F913F912F910F900FBE0F901F90A0
S113024018951F920F920FB60F9211242F933F937C
S11302504F935F936F937F938F939F93AF93BF93CA
S1130260EF93FF93E0910201F0910301309709F0BD
S11302700995FF91EF91BF91AF919F918F917F91DC
S11302806F915F914F913F912F910F900FBE0F90FF
S11302901F9018951F920F920FB60F9211242F934F
S11302A03F934F935F936F937F938F939F93AF93FA
S11302B0BF93EF93FF93E0910C01F0910D01309700
S11302C009F00995FF91EF91BF91AF919F918F91A3
S11302D07F916F915F914F913F912F910F900FBE3E
S11302E00F901F9018951F920F920FB60F92112422
S11302F02F933F934F935F936F937F938F939F932A
S1130300AF93BF93EF93FF93E0910E01F0910F0130
S1130310309709F00995FF91EF91BF91AF919F91AB
S11303208F917F916F915F914F913F912F910F909A
S11303300FBE0F901F9018951F920F920FB60F9239
S113034011242F933F934F935F936F937F938F93D6
S11303509F93AF93BF93EF93FF93E0911401F091B8
S11303601501309709F00995FF91EF91BF91AF9175
S11303709F918F917F916F915F914F913F912F91B9
S11303800F900FBE0F901F9018951F920F920FB6EB
S11303900F9211242F933F934F935F936F937F9307
S11303A08F939F93AF93BF93EF93FF93E0911201C9
S11303B0F0911301309709F00995FF91EF91BF91E6
S11303C0AF919F918F917F916F915F914F913F91E9
S11303D02F910F900FBE0F901F9018951F920F92A0
S11303E00FB60F9211242F933F934F935F936F9304
S11303F07F938F939F93AF93BF93EF93FF93E0917A
S11304001001F0911101309709F00995FF91EF91D6
S1130410BF91AF919F918F917F916F915F914F9118
S11304203F912F910F900FBE0F901F901895F89445
S1050430FFCFF8
S9030000FC
